:020000040000FA
:020000000C28CA
:040002000034003492
:080008008C0003088D000D08B7
:0800100083008C0E0C0E0900A8
:08001800831610308500003052
:1000200086008312003086009001051A15282120D1
:10003000051E18282120900A10080F39312086004B
:10004000152819308F00C8308E0000000000000015
:1000500000000000000000008E0B25288F0B2328D5
:1000600008008207003401340334023406340734B4
:10007000053404340C340D340F340E340A340B348C
:040080000934083403
:02400E00F33F7E
:00000001FF
